{
  "transactions": [
    {
      "hash": "0xd85852bfe8e27adce33f9bacb81c0505b62a348c5fcb2e045edde53f997d4289",
      "transactionType": "CREATE",
      "contractName": "TinyFactory",
      "contractAddress": "0xf7ffa2cb2da080f6f84f495c5a670e81c106fd6e",
      "function": null,
      "arguments": null,
      "transaction": {
        "from": "0x869a1e10ca4d1e1223676c0a4214c6cc10023244",
        "gas": "0x466f0",
        "value": "0x0",
        "input": "0x608060405234801561000f575f80fd5b5061030d8061001d5f395ff3fe608060405234801561000f575f80fd5b506004361061003f575f3560e01c80636cd5c39b146100435780639ad1ee1014610068578063aa9a068f1461007b575b5f80fd5b61004b610090565b6040516001600160a01b0390911681526020015b60405180910390f35b61004b6100763660046101af565b61011d565b610083610144565b60405161005f91906101c6565b5f8060405161009e906101a3565b604051809103905ff0801580156100b7573d5f803e3d5ffd5b505f80546001810182559080527f290decd9548b62a8d60345a988386fc84ba6bc95484008f6362f93160ef3e5630180547fffffffffffffffffffffffff0000000000000000000000000000000000000000166001600160a01b03831617905592915050565b5f818154811061012b575f80fd5b5f918252602090912001546001600160a01b0316905081565b60605f80548060200260200160405190810160405280929190818152602001828054801561019957602002820191905f5260205f20905b81546001600160a01b0316815260019091019060200180831161017b575b5050505050905090565b60c58061021383390190565b5f602082840312156101bf575f80fd5b5035919050565b602080825282518282018190525f9190848201906040850190845b818110156102065783516001600160a01b0316835292840192918401916001016101e1565b5090969550505050505056fe6080604052348015600e575f80fd5b5060aa8061001b5f395ff3fe6080604052348015600e575f80fd5b50600436106030575f3560e01c80633fa4f24514603457806360fe47b114604d575b5f80fd5b603b5f5481565b60405190815260200160405180910390f35b605c6058366004605e565b5f55565b005b5f60208284031215606d575f80fd5b503591905056fea264697066735822122061ff223bbde494462904de8a1d30342de11ec18627271217f437637225dff3f964736f6c63430008140033a2646970667358221220f11f0256e3ebecfa73dc0d84e6f95d899afb6c9cd7b7580d6eba7d8699c4654d64736f6c63430008140033",
        "nonce": "0x31",
        "chainId": "0x2105"
      },
      "additionalContracts": [],
      "isFixedGasLimit": false
    },
    {
      "hash": "0x171c23588c81c66a2544979dbab416e28d6d9336bc3e6426a3a6063b78ea5d14",
      "transactionType": "CALL",
      "contractName": "TinyFactory",
      "contractAddress": "0xf7ffa2cb2da080f6f84f495c5a670e81c106fd6e",
      "function": "deployContract()",
      "arguments": [],
      "transaction": {
        "from": "0x869a1e10ca4d1e1223676c0a4214c6cc10023244",
        "to": "0xf7ffa2cb2da080f6f84f495c5a670e81c106fd6e",
        "gas": "0x2c6fd",
        "value": "0x0",
        "input": "0x6cd5c39b",
        "nonce": "0x32",
        "chainId": "0x2105"
      },
      "additionalContracts": [
        {
          "transactionType": "CREATE",
          "address": "0xddd71e2968d58a9724b3af5bb5aed659df351ebb",
          "initCode": "0x6080604052348015600e575f80fd5b5060aa8061001b5f395ff3fe6080604052348015600e575f80fd5b50600436106030575f3560e01c80633fa4f24514603457806360fe47b114604d575b5f80fd5b603b5f5481565b60405190815260200160405180910390f35b605c6058366004605e565b5f55565b005b5f60208284031215606d575f80fd5b503591905056fea264697066735822122061ff223bbde494462904de8a1d30342de11ec18627271217f437637225dff3f964736f6c63430008140033"
        }
      ],
      "isFixedGasLimit": false
    },
    {
      "hash": "0xfe26f6b55931ce8b1f2a6bbd492bbd0e02af33e63f97122769c6f1d127331dce",
      "transactionType": "CALL",
      "contractName": "TinyContract",
      "contractAddress": "0xddd71e2968d58a9724b3af5bb5aed659df351ebb",
      "function": "set(uint256)",
      "arguments": [
        "641"
      ],
      "transaction": {
        "from": "0x869a1e10ca4d1e1223676c0a4214c6cc10023244",
        "to": "0xddd71e2968d58a9724b3af5bb5aed659df351ebb",
        "gas": "0xead6",
        "value": "0x0",
        "input": "0x60fe47b10000000000000000000000000000000000000000000000000000000000000281",
        "nonce": "0x33",
        "chainId": "0x2105"
      },
      "additionalContracts": [],
      "isFixedGasLimit": false
    },
    {
      "hash": "0xf3a982e56191e56ecc175bdf4b944dce74528d2ca5107c9eb98b1d83f7e6863c",
      "transactionType": "CALL",
      "contractName": "TinyFactory",
      "contractAddress": "0xf7ffa2cb2da080f6f84f495c5a670e81c106fd6e",
      "function": "deployContract()",
      "arguments": [],
      "transaction": {
        "from": "0x869a1e10ca4d1e1223676c0a4214c6cc10023244",
        "to": "0xf7ffa2cb2da080f6f84f495c5a670e81c106fd6e",
        "gas": "0x28f1f",
        "value": "0x0",
        "input": "0x6cd5c39b",
        "nonce": "0x34",
        "chainId": "0x2105"
      },
      "additionalContracts": [
        {
          "transactionType": "CREATE",
          "address": "0x080a780dfa1d0bf6d9d2b2218fac9a9a1cb2e614",
          "initCode": "0x6080604052348015600e575f80fd5b5060aa8061001b5f395ff3fe6080604052348015600e575f80fd5b50600436106030575f3560e01c80633fa4f24514603457806360fe47b114604d575b5f80fd5b603b5f5481565b60405190815260200160405180910390f35b605c6058366004605e565b5f55565b005b5f60208284031215606d575f80fd5b503591905056fea264697066735822122061ff223bbde494462904de8a1d30342de11ec18627271217f437637225dff3f964736f6c63430008140033"
        }
      ],
      "isFixedGasLimit": false
    },
    {
      "hash": "0x4842b62df6c60c710898002bfe292adedcbbd7b46db87aafe97ccae72533b832",
      "transactionType": "CALL",
      "contractName": "TinyContract",
      "contractAddress": "0x080a780dfa1d0bf6d9d2b2218fac9a9a1cb2e614",
      "function": "set(uint256)",
      "arguments": [
        "197"
      ],
      "transaction": {
        "from": "0x869a1e10ca4d1e1223676c0a4214c6cc10023244",
        "to": "0x080a780dfa1d0bf6d9d2b2218fac9a9a1cb2e614",
        "gas": "0xf895",
        "value": "0x0",
        "input": "0x60fe47b100000000000000000000000000000000000000000000000000000000000000c5",
        "nonce": "0x35",
        "chainId": "0x2105"
      },
      "additionalContracts": [],
      "isFixedGasLimit": false
    },
    {
      "hash": "0x6f5900631f1bfd0f25572ff31bbe0eb7de3cad67d7354a753b799ab639c4997c",
      "transactionType": "CALL",
      "contractName": "TinyFactory",
      "contractAddress": "0xf7ffa2cb2da080f6f84f495c5a670e81c106fd6e",
      "function": "deployContract()",
      "arguments": [],
      "transaction": {
        "from": "0x869a1e10ca4d1e1223676c0a4214c6cc10023244",
        "to": "0xf7ffa2cb2da080f6f84f495c5a670e81c106fd6e",
        "gas": "0x28f1f",
        "value": "0x0",
        "input": "0x6cd5c39b",
        "nonce": "0x36",
        "chainId": "0x2105"
      },
      "additionalContracts": [
        {
          "transactionType": "CREATE",
          "address": "0x323f3c774439b8d46780a1215d00dc648e0564a6",
          "initCode": "0x6080604052348015600e575f80fd5b5060aa8061001b5f395ff3fe6080604052348015600e575f80fd5b50600436106030575f3560e01c80633fa4f24514603457806360fe47b114604d575b5f80fd5b603b5f5481565b60405190815260200160405180910390f35b605c6058366004605e565b5f55565b005b5f60208284031215606d575f80fd5b503591905056fea264697066735822122061ff223bbde494462904de8a1d30342de11ec18627271217f437637225dff3f964736f6c63430008140033"
        }
      ],
      "isFixedGasLimit": false
    },
    {
      "hash": "0x72c441331895023ec35ec2de74884e28921765eee22acfdc8d5ede2f31dd084f",
      "transactionType": "CALL",
      "contractName": "TinyContract",
      "contractAddress": "0x323f3c774439b8d46780a1215d00dc648e0564a6",
      "function": "set(uint256)",
      "arguments": [
        "829"
      ],
      "transaction": {
        "from": "0x869a1e10ca4d1e1223676c0a4214c6cc10023244",
        "to": "0x323f3c774439b8d46780a1215d00dc648e0564a6",
        "gas": "0xead6",
        "value": "0x0",
        "input": "0x60fe47b1000000000000000000000000000000000000000000000000000000000000033d",
        "nonce": "0x37",
        "chainId": "0x2105"
      },
      "additionalContracts": [],
      "isFixedGasLimit": false
    },
    {
      "hash": "0x5e93026ed077b16eaafb9508e549ff91b2726568dccc99912b78883e1e40415b",
      "transactionType": "CALL",
      "contractName": "TinyFactory",
      "contractAddress": "0xf7ffa2cb2da080f6f84f495c5a670e81c106fd6e",
      "function": "deployContract()",
      "arguments": [],
      "transaction": {
        "from": "0x869a1e10ca4d1e1223676c0a4214c6cc10023244",
        "to": "0xf7ffa2cb2da080f6f84f495c5a670e81c106fd6e",
        "gas": "0x28f1f",
        "value": "0x0",
        "input": "0x6cd5c39b",
        "nonce": "0x38",
        "chainId": "0x2105"
      },
      "additionalContracts": [
        {
          "transactionType": "CREATE",
          "address": "0x78f3553d9e4f32f95154bf546b02f67d0c4029eb",
          "initCode": "0x6080604052348015600e575f80fd5b5060aa8061001b5f395ff3fe6080604052348015600e575f80fd5b50600436106030575f3560e01c80633fa4f24514603457806360fe47b114604d575b5f80fd5b603b5f5481565b60405190815260200160405180910390f35b605c6058366004605e565b5f55565b005b5f60208284031215606d575f80fd5b503591905056fea264697066735822122061ff223bbde494462904de8a1d30342de11ec18627271217f437637225dff3f964736f6c63430008140033"
        }
      ],
      "isFixedGasLimit": false
    },
    {
      "hash": "0xebc3882ac692632183135b468ce81c700a725a0dd0bd353ea907049f1f1540f5",
      "transactionType": "CALL",
      "contractName": "TinyContract",
      "contractAddress": "0x78f3553d9e4f32f95154bf546b02f67d0c4029eb",
      "function": "set(uint256)",
      "arguments": [
        "800"
      ],
      "transaction": {
        "from": "0x869a1e10ca4d1e1223676c0a4214c6cc10023244",
        "to": "0x78f3553d9e4f32f95154bf546b02f67d0c4029eb",
        "gas": "0xead6",
        "value": "0x0",
        "input": "0x60fe47b10000000000000000000000000000000000000000000000000000000000000320",
        "nonce": "0x39",
        "chainId": "0x2105"
      },
      "additionalContracts": [],
      "isFixedGasLimit": false
    },
    {
      "hash": "0xe93db4ec963157891231264ea7ce20164e487f47fe0dbaca6f05cd9a68535635",
      "transactionType": "CALL",
      "contractName": "TinyFactory",
      "contractAddress": "0xf7ffa2cb2da080f6f84f495c5a670e81c106fd6e",
      "function": "deployContract()",
      "arguments": [],
      "transaction": {
        "from": "0x869a1e10ca4d1e1223676c0a4214c6cc10023244",
        "to": "0xf7ffa2cb2da080f6f84f495c5a670e81c106fd6e",
        "gas": "0x28f1f",
        "value": "0x0",
        "input": "0x6cd5c39b",
        "nonce": "0x3a",
        "chainId": "0x2105"
      },
      "additionalContracts": [
        {
          "transactionType": "CREATE",
          "address": "0x555825d87d5d2e8b862a34d3b6ccc048c03ea531",
          "initCode": "0x6080604052348015600e575f80fd5b5060aa8061001b5f395ff3fe6080604052348015600e575f80fd5b50600436106030575f3560e01c80633fa4f24514603457806360fe47b114604d575b5f80fd5b603b5f5481565b60405190815260200160405180910390f35b605c6058366004605e565b5f55565b005b5f60208284031215606d575f80fd5b503591905056fea264697066735822122061ff223bbde494462904de8a1d30342de11ec18627271217f437637225dff3f964736f6c63430008140033"
        }
      ],
      "isFixedGasLimit": false
    },
    {
      "hash": "0x326e74fd172589124e2f988bd64f745a91f35d6ddb74898b7417ea011e453d66",
      "transactionType": "CALL",
      "contractName": "TinyContract",
      "contractAddress": "0x555825d87d5d2e8b862a34d3b6ccc048c03ea531",
      "function": "set(uint256)",
      "arguments": [
        "321"
      ],
      "transaction": {
        "from": "0x869a1e10ca4d1e1223676c0a4214c6cc10023244",
        "to": "0x555825d87d5d2e8b862a34d3b6ccc048c03ea531",
        "gas": "0xead6",
        "value": "0x0",
        "input": "0x60fe47b10000000000000000000000000000000000000000000000000000000000000141",
        "nonce": "0x3b",
        "chainId": "0x2105"
      },
      "additionalContracts": [],
      "isFixedGasLimit": false
    },
    {
      "hash": "0x0f9f059a69827906401464e2d387e898401d704426c10ee6734cad7bb132060c",
      "transactionType": "CALL",
      "contractName": "TinyFactory",
      "contractAddress": "0xf7ffa2cb2da080f6f84f495c5a670e81c106fd6e",
      "function": "deployContract()",
      "arguments": [],
      "transaction": {
        "from": "0x869a1e10ca4d1e1223676c0a4214c6cc10023244",
        "to": "0xf7ffa2cb2da080f6f84f495c5a670e81c106fd6e",
        "gas": "0x28f1f",
        "value": "0x0",
        "input": "0x6cd5c39b",
        "nonce": "0x3c",
        "chainId": "0x2105"
      },
      "additionalContracts": [
        {
          "transactionType": "CREATE",
          "address": "0x525db9ae4faf475f19fe3815cc7eaac587842f5e",
          "initCode": "0x6080604052348015600e575f80fd5b5060aa8061001b5f395ff3fe6080604052348015600e575f80fd5b50600436106030575f3560e01c80633fa4f24514603457806360fe47b114604d575b5f80fd5b603b5f5481565b60405190815260200160405180910390f35b605c6058366004605e565b5f55565b005b5f60208284031215606d575f80fd5b503591905056fea264697066735822122061ff223bbde494462904de8a1d30342de11ec18627271217f437637225dff3f964736f6c63430008140033"
        }
      ],
      "isFixedGasLimit": false
    },
    {
      "hash": "0x55943357081821c762f3ce576c4ff01cb8e8eb08d82e7a26c584160e7c990264",
      "transactionType": "CALL",
      "contractName": "TinyContract",
      "contractAddress": "0x525db9ae4faf475f19fe3815cc7eaac587842f5e",
      "function": "set(uint256)",
      "arguments": [
        "954"
      ],
      "transaction": {
        "from": "0x869a1e10ca4d1e1223676c0a4214c6cc10023244",
        "to": "0x525db9ae4faf475f19fe3815cc7eaac587842f5e",
        "gas": "0xead6",
        "value": "0x0",
        "input": "0x60fe47b100000000000000000000000000000000000000000000000000000000000003ba",
        "nonce": "0x3d",
        "chainId": "0x2105"
      },
      "additionalContracts": [],
      "isFixedGasLimit": false
    },
    {
      "hash": "0x318aeb9f3583e2ffa90a36d39ea54b2a74e4e87012f4ca43027701db1cd25c53",
      "transactionType": "CALL",
      "contractName": "TinyFactory",
      "contractAddress": "0xf7ffa2cb2da080f6f84f495c5a670e81c106fd6e",
      "function": "deployContract()",
      "arguments": [],
      "transaction": {
        "from": "0x869a1e10ca4d1e1223676c0a4214c6cc10023244",
        "to": "0xf7ffa2cb2da080f6f84f495c5a670e81c106fd6e",
        "gas": "0x28f1f",
        "value": "0x0",
        "input": "0x6cd5c39b",
        "nonce": "0x3e",
        "chainId": "0x2105"
      },
      "additionalContracts": [
        {
          "transactionType": "CREATE",
          "address": "0x0f809a16d5b2a765969cf64ac170969edcef4e79",
          "initCode": "0x6080604052348015600e575f80fd5b5060aa8061001b5f395ff3fe6080604052348015600e575f80fd5b50600436106030575f3560e01c80633fa4f24514603457806360fe47b114604d575b5f80fd5b603b5f5481565b60405190815260200160405180910390f35b605c6058366004605e565b5f55565b005b5f60208284031215606d575f80fd5b503591905056fea264697066735822122061ff223bbde494462904de8a1d30342de11ec18627271217f437637225dff3f964736f6c63430008140033"
        }
      ],
      "isFixedGasLimit": false
    },
    {
      "hash": "0x3fe3520561e63b98c92f4615b1297766cc04fd76d6601bac3c8bf6d6b164ef33",
      "transactionType": "CALL",
      "contractName": "TinyContract",
      "contractAddress": "0x0f809a16d5b2a765969cf64ac170969edcef4e79",
      "function": "set(uint256)",
      "arguments": [
        "713"
      ],
      "transaction": {
        "from": "0x869a1e10ca4d1e1223676c0a4214c6cc10023244",
        "to": "0x0f809a16d5b2a765969cf64ac170969edcef4e79",
        "gas": "0xead6",
        "value": "0x0",
        "input": "0x60fe47b100000000000000000000000000000000000000000000000000000000000002c9",
        "nonce": "0x3f",
        "chainId": "0x2105"
      },
      "additionalContracts": [],
      "isFixedGasLimit": false
    },
    {
      "hash": "0xeef276cc0cc5a9225f870efea0a83ad29c1e4d5528e7201fafc822ce29bb9232",
      "transactionType": "CALL",
      "contractName": "TinyFactory",
      "contractAddress": "0xf7ffa2cb2da080f6f84f495c5a670e81c106fd6e",
      "function": "deployContract()",
      "arguments": [],
      "transaction": {
        "from": "0x869a1e10ca4d1e1223676c0a4214c6cc10023244",
        "to": "0xf7ffa2cb2da080f6f84f495c5a670e81c106fd6e",
        "gas": "0x28f1f",
        "value": "0x0",
        "input": "0x6cd5c39b",
        "nonce": "0x40",
        "chainId": "0x2105"
      },
      "additionalContracts": [
        {
          "transactionType": "CREATE",
          "address": "0xdf3a46ad39b6480571868b9a0047a7b6f88d518b",
          "initCode": "0x6080604052348015600e575f80fd5b5060aa8061001b5f395ff3fe6080604052348015600e575f80fd5b50600436106030575f3560e01c80633fa4f24514603457806360fe47b114604d575b5f80fd5b603b5f5481565b60405190815260200160405180910390f35b605c6058366004605e565b5f55565b005b5f60208284031215606d575f80fd5b503591905056fea264697066735822122061ff223bbde494462904de8a1d30342de11ec18627271217f437637225dff3f964736f6c63430008140033"
        }
      ],
      "isFixedGasLimit": false
    },
    {
      "hash": "0x80466f19098cd75bf9cbd1c65c57ce907ce568544db0e6f4e033c764cb2c090b",
      "transactionType": "CALL",
      "contractName": "TinyContract",
      "contractAddress": "0xdf3a46ad39b6480571868b9a0047a7b6f88d518b",
      "function": "set(uint256)",
      "arguments": [
        "616"
      ],
      "transaction": {
        "from": "0x869a1e10ca4d1e1223676c0a4214c6cc10023244",
        "to": "0xdf3a46ad39b6480571868b9a0047a7b6f88d518b",
        "gas": "0xead6",
        "value": "0x0",
        "input": "0x60fe47b10000000000000000000000000000000000000000000000000000000000000268",
        "nonce": "0x41",
        "chainId": "0x2105"
      },
      "additionalContracts": [],
      "isFixedGasLimit": false
    },
    {
      "hash": "0x8062bad7d4b902173d75001a46690d2bfd70fc62d6e64e3e12da38712eec5730",
      "transactionType": "CALL",
      "contractName": "TinyFactory",
      "contractAddress": "0xf7ffa2cb2da080f6f84f495c5a670e81c106fd6e",
      "function": "deployContract()",
      "arguments": [],
      "transaction": {
        "from": "0x869a1e10ca4d1e1223676c0a4214c6cc10023244",
        "to": "0xf7ffa2cb2da080f6f84f495c5a670e81c106fd6e",
        "gas": "0x28f1f",
        "value": "0x0",
        "input": "0x6cd5c39b",
        "nonce": "0x42",
        "chainId": "0x2105"
      },
      "additionalContracts": [
        {
          "transactionType": "CREATE",
          "address": "0xc1d99ecb34b44098b1bad790f9dec004ef847ae2",
          "initCode": "0x6080604052348015600e575f80fd5b5060aa8061001b5f395ff3fe6080604052348015600e575f80fd5b50600436106030575f3560e01c80633fa4f24514603457806360fe47b114604d575b5f80fd5b603b5f5481565b60405190815260200160405180910390f35b605c6058366004605e565b5f55565b005b5f60208284031215606d575f80fd5b503591905056fea264697066735822122061ff223bbde494462904de8a1d30342de11ec18627271217f437637225dff3f964736f6c63430008140033"
        }
      ],
      "isFixedGasLimit": false
    },
    {
      "hash": "0x69c088f12c58abab3d2d726e3e48a585a8b2debec6476838d9b3683d56f1920d",
      "transactionType": "CALL",
      "contractName": "TinyContract",
      "contractAddress": "0xc1d99ecb34b44098b1bad790f9dec004ef847ae2",
      "function": "set(uint256)",
      "arguments": [
        "976"
      ],
      "transaction": {
        "from": "0x869a1e10ca4d1e1223676c0a4214c6cc10023244",
        "to": "0xc1d99ecb34b44098b1bad790f9dec004ef847ae2",
        "gas": "0xead6",
        "value": "0x0",
        "input": "0x60fe47b100000000000000000000000000000000000000000000000000000000000003d0",
        "nonce": "0x43",
        "chainId": "0x2105"
      },
      "additionalContracts": [],
      "isFixedGasLimit": false
    },
    {
      "hash": "0x878c396dc38bbc031f6cb0152229b5b2b0e81e3b8cf4ecec78ff59743f35fbf3",
      "transactionType": "CALL",
      "contractName": "TinyFactory",
      "contractAddress": "0xf7ffa2cb2da080f6f84f495c5a670e81c106fd6e",
      "function": "deployContract()",
      "arguments": [],
      "transaction": {
        "from": "0x869a1e10ca4d1e1223676c0a4214c6cc10023244",
        "to": "0xf7ffa2cb2da080f6f84f495c5a670e81c106fd6e",
        "gas": "0x28f1f",
        "value": "0x0",
        "input": "0x6cd5c39b",
        "nonce": "0x44",
        "chainId": "0x2105"
      },
      "additionalContracts": [
        {
          "transactionType": "CREATE",
          "address": "0x7f4b97badb5cd6d927d5fb6187967d659e3be216",
          "initCode": "0x6080604052348015600e575f80fd5b5060aa8061001b5f395ff3fe6080604052348015600e575f80fd5b50600436106030575f3560e01c80633fa4f24514603457806360fe47b114604d575b5f80fd5b603b5f5481565b60405190815260200160405180910390f35b605c6058366004605e565b5f55565b005b5f60208284031215606d575f80fd5b503591905056fea264697066735822122061ff223bbde494462904de8a1d30342de11ec18627271217f437637225dff3f964736f6c63430008140033"
        }
      ],
      "isFixedGasLimit": false
    },
    {
      "hash": "0xdf346fc172f0d1a1ba6cfce9e85eeb74f92e9aa78e6c7fa9e3c87d26d1049a50",
      "transactionType": "CALL",
      "contractName": "TinyContract",
      "contractAddress": "0x7f4b97badb5cd6d927d5fb6187967d659e3be216",
      "function": "set(uint256)",
      "arguments": [
        "5"
      ],
      "transaction": {
        "from": "0x869a1e10ca4d1e1223676c0a4214c6cc10023244",
        "to": "0x7f4b97badb5cd6d927d5fb6187967d659e3be216",
        "gas": "0xf895",
        "value": "0x0",
        "input": "0x60fe47b10000000000000000000000000000000000000000000000000000000000000005",
        "nonce": "0x45",
        "chainId": "0x2105"
      },
      "additionalContracts": [],
      "isFixedGasLimit": false
    },
    {
      "hash": "0xe371247696bf2dd3e25c8ef4b4b92cf26d5e1abdb43feeab2210daf11d07aad4",
      "transactionType": "CALL",
      "contractName": "TinyFactory",
      "contractAddress": "0xf7ffa2cb2da080f6f84f495c5a670e81c106fd6e",
      "function": "deployContract()",
      "arguments": [],
      "transaction": {
        "from": "0x869a1e10ca4d1e1223676c0a4214c6cc10023244",
        "to": "0xf7ffa2cb2da080f6f84f495c5a670e81c106fd6e",
        "gas": "0x28f1f",
        "value": "0x0",
        "input": "0x6cd5c39b",
        "nonce": "0x46",
        "chainId": "0x2105"
      },
      "additionalContracts": [
        {
          "transactionType": "CREATE",
          "address": "0xe17b4786083635c564825f81f6836f743ba2e9a7",
          "initCode": "0x6080604052348015600e575f80fd5b5060aa8061001b5f395ff3fe6080604052348015600e575f80fd5b50600436106030575f3560e01c80633fa4f24514603457806360fe47b114604d575b5f80fd5b603b5f5481565b60405190815260200160405180910390f35b605c6058366004605e565b5f55565b005b5f60208284031215606d575f80fd5b503591905056fea264697066735822122061ff223bbde494462904de8a1d30342de11ec18627271217f437637225dff3f964736f6c63430008140033"
        }
      ],
      "isFixedGasLimit": false
    },
    {
      "hash": "0xc367f08b08c78d3975cf3027536ae85c8a606e4f99195479ab54b9fd6d50c4a7",
      "transactionType": "CALL",
      "contractName": "TinyContract",
      "contractAddress": "0xe17b4786083635c564825f81f6836f743ba2e9a7",
      "function": "set(uint256)",
      "arguments": [
        "147"
      ],
      "transaction": {
        "from": "0x869a1e10ca4d1e1223676c0a4214c6cc10023244",
        "to": "0xe17b4786083635c564825f81f6836f743ba2e9a7",
        "gas": "0xf895",
        "value": "0x0",
        "input": "0x60fe47b10000000000000000000000000000000000000000000000000000000000000093",
        "nonce": "0x47",
        "chainId": "0x2105"
      },
      "additionalContracts": [],
      "isFixedGasLimit": false
    },
    {
      "hash": "0x0c51747dda98bd6123366dab5f5c1ccfa3552a9f07e3a86ab247db62531628bf",
      "transactionType": "CALL",
      "contractName": "TinyFactory",
      "contractAddress": "0xf7ffa2cb2da080f6f84f495c5a670e81c106fd6e",
      "function": "deployContract()",
      "arguments": [],
      "transaction": {
        "from": "0x869a1e10ca4d1e1223676c0a4214c6cc10023244",
        "to": "0xf7ffa2cb2da080f6f84f495c5a670e81c106fd6e",
        "gas": "0x28f1f",
        "value": "0x0",
        "input": "0x6cd5c39b",
        "nonce": "0x48",
        "chainId": "0x2105"
      },
      "additionalContracts": [
        {
          "transactionType": "CREATE",
          "address": "0x507cf698ebf379a178222103ff7ba7670065fe9a",
          "initCode": "0x6080604052348015600e575f80fd5b5060aa8061001b5f395ff3fe6080604052348015600e575f80fd5b50600436106030575f3560e01c80633fa4f24514603457806360fe47b114604d575b5f80fd5b603b5f5481565b60405190815260200160405180910390f35b605c6058366004605e565b5f55565b005b5f60208284031215606d575f80fd5b503591905056fea264697066735822122061ff223bbde494462904de8a1d30342de11ec18627271217f437637225dff3f964736f6c63430008140033"
        }
      ],
      "isFixedGasLimit": false
    },
    {
      "hash": "0x8afc9345007e59ec1f59f821a931ebd28643ef4e55f1c9102db9919ad989b317",
      "transactionType": "CALL",
      "contractName": "TinyContract",
      "contractAddress": "0x507cf698ebf379a178222103ff7ba7670065fe9a",
      "function": "set(uint256)",
      "arguments": [
        "648"
      ],
      "transaction": {
        "from": "0x869a1e10ca4d1e1223676c0a4214c6cc10023244",
        "to": "0x507cf698ebf379a178222103ff7ba7670065fe9a",
        "gas": "0xead6",
        "value": "0x0",
        "input": "0x60fe47b10000000000000000000000000000000000000000000000000000000000000288",
        "nonce": "0x49",
        "chainId": "0x2105"
      },
      "additionalContracts": [],
      "isFixedGasLimit": false
    },
    {
      "hash": "0x452b7d72282fb062f12015a74a55cfb8d6c90f1a1c1928d5bc52dcf0ef997764",
      "transactionType": "CALL",
      "contractName": "TinyFactory",
      "contractAddress": "0xf7ffa2cb2da080f6f84f495c5a670e81c106fd6e",
      "function": "deployContract()",
      "arguments": [],
      "transaction": {
        "from": "0x869a1e10ca4d1e1223676c0a4214c6cc10023244",
        "to": "0xf7ffa2cb2da080f6f84f495c5a670e81c106fd6e",
        "gas": "0x28f1f",
        "value": "0x0",
        "input": "0x6cd5c39b",
        "nonce": "0x4a",
        "chainId": "0x2105"
      },
      "additionalContracts": [
        {
          "transactionType": "CREATE",
          "address": "0xcf3be8983ba4012e007289c72888be9b41ea98c9",
          "initCode": "0x6080604052348015600e575f80fd5b5060aa8061001b5f395ff3fe6080604052348015600e575f80fd5b50600436106030575f3560e01c80633fa4f24514603457806360fe47b114604d575b5f80fd5b603b5f5481565b60405190815260200160405180910390f35b605c6058366004605e565b5f55565b005b5f60208284031215606d575f80fd5b503591905056fea264697066735822122061ff223bbde494462904de8a1d30342de11ec18627271217f437637225dff3f964736f6c63430008140033"
        }
      ],
      "isFixedGasLimit": false
    },
    {
      "hash": "0x570131170d48ca41f98346237dd1d95e209a49e402d2fcfd5ef6b9bea6550ce1",
      "transactionType": "CALL",
      "contractName": "TinyContract",
      "contractAddress": "0xcf3be8983ba4012e007289c72888be9b41ea98c9",
      "function": "set(uint256)",
      "arguments": [
        "78"
      ],
      "transaction": {
        "from": "0x869a1e10ca4d1e1223676c0a4214c6cc10023244",
        "to": "0xcf3be8983ba4012e007289c72888be9b41ea98c9",
        "gas": "0xf895",
        "value": "0x0",
        "input": "0x60fe47b1000000000000000000000000000000000000000000000000000000000000004e",
        "nonce": "0x4b",
        "chainId": "0x2105"
      },
      "additionalContracts": [],
      "isFixedGasLimit": false
    },
    {
      "hash": "0x9bb1a516b2887176dedffa9f63059e7b39d805f776610ba6d2d24f418cf10363",
      "transactionType": "CALL",
      "contractName": "TinyFactory",
      "contractAddress": "0xf7ffa2cb2da080f6f84f495c5a670e81c106fd6e",
      "function": "deployContract()",
      "arguments": [],
      "transaction": {
        "from": "0x869a1e10ca4d1e1223676c0a4214c6cc10023244",
        "to": "0xf7ffa2cb2da080f6f84f495c5a670e81c106fd6e",
        "gas": "0x28f1f",
        "value": "0x0",
        "input": "0x6cd5c39b",
        "nonce": "0x4c",
        "chainId": "0x2105"
      },
      "additionalContracts": [
        {
          "transactionType": "CREATE",
          "address": "0x8b738bfa1909e183e7f80e412028c68c2ed14d82",
          "initCode": "0x6080604052348015600e575f80fd5b5060aa8061001b5f395ff3fe6080604052348015600e575f80fd5b50600436106030575f3560e01c80633fa4f24514603457806360fe47b114604d575b5f80fd5b603b5f5481565b60405190815260200160405180910390f35b605c6058366004605e565b5f55565b005b5f60208284031215606d575f80fd5b503591905056fea264697066735822122061ff223bbde494462904de8a1d30342de11ec18627271217f437637225dff3f964736f6c63430008140033"
        }
      ],
      "isFixedGasLimit": false
    },
    {
      "hash": "0x23533e81ca55394bea2e4e8cae70bf552ee688eef748ad72dd63cc91ec8237a6",
      "transactionType": "CALL",
      "contractName": "TinyContract",
      "contractAddress": "0x8b738bfa1909e183e7f80e412028c68c2ed14d82",
      "function": "set(uint256)",
      "arguments": [
        "806"
      ],
      "transaction": {
        "from": "0x869a1e10ca4d1e1223676c0a4214c6cc10023244",
        "to": "0x8b738bfa1909e183e7f80e412028c68c2ed14d82",
        "gas": "0xead6",
        "value": "0x0",
        "input": "0x60fe47b10000000000000000000000000000000000000000000000000000000000000326",
        "nonce": "0x4d",
        "chainId": "0x2105"
      },
      "additionalContracts": [],
      "isFixedGasLimit": false
    }
  ],
  "receipts": [
    {
      "status": "0x1",
      "cumulativeGasUsed": "0x6f8038",
      "logs": [],
      "logsBloom": "0x00000000000000000000000000000000000000000000000000000000000000000000000000000000000000000000000000000000000000000000000000000000000000000000000000000000000000000000000000000000000000000000000000000000000000000000000000000000000000000000000000000000000000000000000000000000000000000000000000000000000000000000000000000000000000000000000000000000000000000000000000000000000000000000000000000000000000000000000000000000000000000000000000000000000000000000000000000000000000000000000000000000000000000000000000000000",
      "type": "0x2",
      "transactionHash": "0xd85852bfe8e27adce33f9bacb81c0505b62a348c5fcb2e045edde53f997d4289",
      "transactionIndex": "0x27",
      "blockHash": "0x991783f6edc864752820956593de68347b284fb3954d13f0b080e58afea1ed4d",
      "blockNumber": "0x2095d13",
      "gasUsed": "0x362e0",
      "effectiveGasPrice": "0xe60e7b",
      "from": "0x869a1e10ca4d1e1223676c0a4214c6cc10023244",
      "to": null,
      "contractAddress": "0xf7ffa2cb2da080f6f84f495c5a670e81c106fd6e",
      "l1BaseFeeScalar": "0x8dd",
      "l1BlobBaseFee": "0x1",
      "l1BlobBaseFeeScalar": "0x101c12",
      "l1Fee": "0x480867691",
      "l1GasPrice": "0x34c6f658",
      "l1GasUsed": "0x2598"
    },
    {
      "status": "0x1",
      "cumulativeGasUsed": "0x7182f7",
      "logs": [],
      "logsBloom": "0x00000000000000000000000000000000000000000000000000000000000000000000000000000000000000000000000000000000000000000000000000000000000000000000000000000000000000000000000000000000000000000000000000000000000000000000000000000000000000000000000000000000000000000000000000000000000000000000000000000000000000000000000000000000000000000000000000000000000000000000000000000000000000000000000000000000000000000000000000000000000000000000000000000000000000000000000000000000000000000000000000000000000000000000000000000000",
      "type": "0x2",
      "transactionHash": "0x171c23588c81c66a2544979dbab416e28d6d9336bc3e6426a3a6063b78ea5d14",
      "transactionIndex": "0x28",
      "blockHash": "0x991783f6edc864752820956593de68347b284fb3954d13f0b080e58afea1ed4d",
      "blockNumber": "0x2095d13",
      "gasUsed": "0x202bf",
      "effectiveGasPrice": "0xe60e7b",
      "from": "0x869a1e10ca4d1e1223676c0a4214c6cc10023244",
      "to": "0xf7ffa2cb2da080f6f84f495c5a670e81c106fd6e",
      "contractAddress": null,
      "l1BaseFeeScalar": "0x8dd",
      "l1BlobBaseFee": "0x1",
      "l1BlobBaseFeeScalar": "0x101c12",
      "l1Fee": "0xbf9a32f6",
      "l1GasPrice": "0x34c6f658",
      "l1GasUsed": "0x640"
    },
    {
      "status": "0x1",
      "cumulativeGasUsed": "0x722cfc",
      "logs": [],
      "logsBloom": "0x00000000000000000000000000000000000000000000000000000000000000000000000000000000000000000000000000000000000000000000000000000000000000000000000000000000000000000000000000000000000000000000000000000000000000000000000000000000000000000000000000000000000000000000000000000000000000000000000000000000000000000000000000000000000000000000000000000000000000000000000000000000000000000000000000000000000000000000000000000000000000000000000000000000000000000000000000000000000000000000000000000000000000000000000000000000",
      "type": "0x2",
      "transactionHash": "0xfe26f6b55931ce8b1f2a6bbd492bbd0e02af33e63f97122769c6f1d127331dce",
      "transactionIndex": "0x29",
      "blockHash": "0x991783f6edc864752820956593de68347b284fb3954d13f0b080e58afea1ed4d",
      "blockNumber": "0x2095d13",
      "gasUsed": "0xaa05",
      "effectiveGasPrice": "0xe60e7b",
      "from": "0x869a1e10ca4d1e1223676c0a4214c6cc10023244",
      "to": "0xddd71e2968d58a9724b3af5bb5aed659df351ebb",
      "contractAddress": null,
      "l1BaseFeeScalar": "0x8dd",
      "l1BlobBaseFee": "0x1",
      "l1BlobBaseFeeScalar": "0x101c12",
      "l1Fee": "0xbf9a32f6",
      "l1GasPrice": "0x34c6f658",
      "l1GasUsed": "0x640"
    },
    {
      "status": "0x1",
      "cumulativeGasUsed": "0x73ecef",
      "logs": [],
      "logsBloom": "0x00000000000000000000000000000000000000000000000000000000000000000000000000000000000000000000000000000000000000000000000000000000000000000000000000000000000000000000000000000000000000000000000000000000000000000000000000000000000000000000000000000000000000000000000000000000000000000000000000000000000000000000000000000000000000000000000000000000000000000000000000000000000000000000000000000000000000000000000000000000000000000000000000000000000000000000000000000000000000000000000000000000000000000000000000000000",
      "type": "0x2",
      "transactionHash": "0xf3a982e56191e56ecc175bdf4b944dce74528d2ca5107c9eb98b1d83f7e6863c",
      "transactionIndex": "0x2a",
      "blockHash": "0x991783f6edc864752820956593de68347b284fb3954d13f0b080e58afea1ed4d",
      "blockNumber": "0x2095d13",
      "gasUsed": "0x1bff3",
      "effectiveGasPrice": "0xe60e7b",
      "from": "0x869a1e10ca4d1e1223676c0a4214c6cc10023244",
      "to": "0xf7ffa2cb2da080f6f84f495c5a670e81c106fd6e",
      "contractAddress": null,
      "l1BaseFeeScalar": "0x8dd",
      "l1BlobBaseFee": "0x1",
      "l1BlobBaseFeeScalar": "0x101c12",
      "l1Fee": "0xbf9a32f6",
      "l1GasPrice": "0x34c6f658",
      "l1GasUsed": "0x640"
    },
    {
      "status": "0x1",
      "cumulativeGasUsed": "0x7496e8",
      "logs": [],
      "logsBloom": "0x00000000000000000000000000000000000000000000000000000000000000000000000000000000000000000000000000000000000000000000000000000000000000000000000000000000000000000000000000000000000000000000000000000000000000000000000000000000000000000000000000000000000000000000000000000000000000000000000000000000000000000000000000000000000000000000000000000000000000000000000000000000000000000000000000000000000000000000000000000000000000000000000000000000000000000000000000000000000000000000000000000000000000000000000000000000",
      "type": "0x2",
      "transactionHash": "0x4842b62df6c60c710898002bfe292adedcbbd7b46db87aafe97ccae72533b832",
      "transactionIndex": "0x2b",
      "blockHash": "0x991783f6edc864752820956593de68347b284fb3954d13f0b080e58afea1ed4d",
      "blockNumber": "0x2095d13",
      "gasUsed": "0xa9f9",
      "effectiveGasPrice": "0xe60e7b",
      "from": "0x869a1e10ca4d1e1223676c0a4214c6cc10023244",
      "to": "0x080a780dfa1d0bf6d9d2b2218fac9a9a1cb2e614",
      "contractAddress": null,
      "l1BaseFeeScalar": "0x8dd",
      "l1BlobBaseFee": "0x1",
      "l1BlobBaseFeeScalar": "0x101c12",
      "l1Fee": "0xbf9a32f6",
      "l1GasPrice": "0x34c6f658",
      "l1GasUsed": "0x640"
    },
    {
      "status": "0x1",
      "cumulativeGasUsed": "0x7656db",
      "logs": [],
      "logsBloom": "0x00000000000000000000000000000000000000000000000000000000000000000000000000000000000000000000000000000000000000000000000000000000000000000000000000000000000000000000000000000000000000000000000000000000000000000000000000000000000000000000000000000000000000000000000000000000000000000000000000000000000000000000000000000000000000000000000000000000000000000000000000000000000000000000000000000000000000000000000000000000000000000000000000000000000000000000000000000000000000000000000000000000000000000000000000000000",
      "type": "0x2",
      "transactionHash": "0x6f5900631f1bfd0f25572ff31bbe0eb7de3cad67d7354a753b799ab639c4997c",
      "transactionIndex": "0x2c",
      "blockHash": "0x991783f6edc864752820956593de68347b284fb3954d13f0b080e58afea1ed4d",
      "blockNumber": "0x2095d13",
      "gasUsed": "0x1bff3",
      "effectiveGasPrice": "0xe60e7b",
      "from": "0x869a1e10ca4d1e1223676c0a4214c6cc10023244",
      "to": "0xf7ffa2cb2da080f6f84f495c5a670e81c106fd6e",
      "contractAddress": null,
      "l1BaseFeeScalar": "0x8dd",
      "l1BlobBaseFee": "0x1",
      "l1BlobBaseFeeScalar": "0x101c12",
      "l1Fee": "0xbf9a32f6",
      "l1GasPrice": "0x34c6f658",
      "l1GasUsed": "0x640"
    },
    {
      "status": "0x1",
      "cumulativeGasUsed": "0x7700e0",
      "logs": [],
      "logsBloom": "0x00000000000000000000000000000000000000000000000000000000000000000000000000000000000000000000000000000000000000000000000000000000000000000000000000000000000000000000000000000000000000000000000000000000000000000000000000000000000000000000000000000000000000000000000000000000000000000000000000000000000000000000000000000000000000000000000000000000000000000000000000000000000000000000000000000000000000000000000000000000000000000000000000000000000000000000000000000000000000000000000000000000000000000000000000000000",
      "type": "0x2",
      "transactionHash": "0x72c441331895023ec35ec2de74884e28921765eee22acfdc8d5ede2f31dd084f",
      "transactionIndex": "0x2d",
      "blockHash": "0x991783f6edc864752820956593de68347b284fb3954d13f0b080e58afea1ed4d",
      "blockNumber": "0x2095d13",
      "gasUsed": "0xaa05",
      "effectiveGasPrice": "0xe60e7b",
      "from": "0x869a1e10ca4d1e1223676c0a4214c6cc10023244",
      "to": "0x323f3c774439b8d46780a1215d00dc648e0564a6",
      "contractAddress": null,
      "l1BaseFeeScalar": "0x8dd",
      "l1BlobBaseFee": "0x1",
      "l1BlobBaseFeeScalar": "0x101c12",
      "l1Fee": "0xbf9a32f6",
      "l1GasPrice": "0x34c6f658",
      "l1GasUsed": "0x640"
    },
    {
      "status": "0x1",
      "cumulativeGasUsed": "0x111c2ef",
      "logs": [],
      "logsBloom": "0x00000000000000000000000000000000000000000000000000000000000000000000000000000000000000000000000000000000000000000000000000000000000000000000000000000000000000000000000000000000000000000000000000000000000000000000000000000000000000000000000000000000000000000000000000000000000000000000000000000000000000000000000000000000000000000000000000000000000000000000000000000000000000000000000000000000000000000000000000000000000000000000000000000000000000000000000000000000000000000000000000000000000000000000000000000000",
      "type": "0x2",
      "transactionHash": "0x5e93026ed077b16eaafb9508e549ff91b2726568dccc99912b78883e1e40415b",
      "transactionIndex": "0x6c",
      "blockHash": "0x991783f6edc864752820956593de68347b284fb3954d13f0b080e58afea1ed4d",
      "blockNumber": "0x2095d13",
      "gasUsed": "0x1bff3",
      "effectiveGasPrice": "0xe60e7b",
      "from": "0x869a1e10ca4d1e1223676c0a4214c6cc10023244",
      "to": "0xf7ffa2cb2da080f6f84f495c5a670e81c106fd6e",
      "contractAddress": null,
      "l1BaseFeeScalar": "0x8dd",
      "l1BlobBaseFee": "0x1",
      "l1BlobBaseFeeScalar": "0x101c12",
      "l1Fee": "0xbf9a32f6",
      "l1GasPrice": "0x34c6f658",
      "l1GasUsed": "0x640"
    },
    {
      "status": "0x1",
      "cumulativeGasUsed": "0x16e8c27",
      "logs": [],
      "logsBloom": "0x00000000000000000000000000000000000000000000000000000000000000000000000000000000000000000000000000000000000000000000000000000000000000000000000000000000000000000000000000000000000000000000000000000000000000000000000000000000000000000000000000000000000000000000000000000000000000000000000000000000000000000000000000000000000000000000000000000000000000000000000000000000000000000000000000000000000000000000000000000000000000000000000000000000000000000000000000000000000000000000000000000000000000000000000000000000",
      "type": "0x2",
      "transactionHash": "0xebc3882ac692632183135b468ce81c700a725a0dd0bd353ea907049f1f1540f5",
      "transactionIndex": "0x83",
      "blockHash": "0x991783f6edc864752820956593de68347b284fb3954d13f0b080e58afea1ed4d",
      "blockNumber": "0x2095d13",
      "gasUsed": "0xaa05",
      "effectiveGasPrice": "0xe60e7b",
      "from": "0x869a1e10ca4d1e1223676c0a4214c6cc10023244",
      "to": "0x78f3553d9e4f32f95154bf546b02f67d0c4029eb",
      "contractAddress": null,
      "l1BaseFeeScalar": "0x8dd",
      "l1BlobBaseFee": "0x1",
      "l1BlobBaseFeeScalar": "0x101c12",
      "l1Fee": "0xbf9a32f6",
      "l1GasPrice": "0x34c6f658",
      "l1GasUsed": "0x640"
    },
    {
      "status": "0x1",
      "cumulativeGasUsed": "0x1704c1a",
      "logs": [],
      "logsBloom": "0x00000000000000000000000000000000000000000000000000000000000000000000000000000000000000000000000000000000000000000000000000000000000000000000000000000000000000000000000000000000000000000000000000000000000000000000000000000000000000000000000000000000000000000000000000000000000000000000000000000000000000000000000000000000000000000000000000000000000000000000000000000000000000000000000000000000000000000000000000000000000000000000000000000000000000000000000000000000000000000000000000000000000000000000000000000000",
      "type": "0x2",
      "transactionHash": "0xe93db4ec963157891231264ea7ce20164e487f47fe0dbaca6f05cd9a68535635",
      "transactionIndex": "0x84",
      "blockHash": "0x991783f6edc864752820956593de68347b284fb3954d13f0b080e58afea1ed4d",
      "blockNumber": "0x2095d13",
      "gasUsed": "0x1bff3",
      "effectiveGasPrice": "0xe60e7b",
      "from": "0x869a1e10ca4d1e1223676c0a4214c6cc10023244",
      "to": "0xf7ffa2cb2da080f6f84f495c5a670e81c106fd6e",
      "contractAddress": null,
      "l1BaseFeeScalar": "0x8dd",
      "l1BlobBaseFee": "0x1",
      "l1BlobBaseFeeScalar": "0x101c12",
      "l1Fee": "0xbf9a32f6",
      "l1GasPrice": "0x34c6f658",
      "l1GasUsed": "0x640"
    },
    {
      "status": "0x1",
      "cumulativeGasUsed": "0x170f61f",
      "logs": [],
      "logsBloom": "0x00000000000000000000000000000000000000000000000000000000000000000000000000000000000000000000000000000000000000000000000000000000000000000000000000000000000000000000000000000000000000000000000000000000000000000000000000000000000000000000000000000000000000000000000000000000000000000000000000000000000000000000000000000000000000000000000000000000000000000000000000000000000000000000000000000000000000000000000000000000000000000000000000000000000000000000000000000000000000000000000000000000000000000000000000000000",
      "type": "0x2",
      "transactionHash": "0x326e74fd172589124e2f988bd64f745a91f35d6ddb74898b7417ea011e453d66",
      "transactionIndex": "0x85",
      "blockHash": "0x991783f6edc864752820956593de68347b284fb3954d13f0b080e58afea1ed4d",
      "blockNumber": "0x2095d13",
      "gasUsed": "0xaa05",
      "effectiveGasPrice": "0xe60e7b",
      "from": "0x869a1e10ca4d1e1223676c0a4214c6cc10023244",
      "to": "0x555825d87d5d2e8b862a34d3b6ccc048c03ea531",
      "contractAddress": null,
      "l1BaseFeeScalar": "0x8dd",
      "l1BlobBaseFee": "0x1",
      "l1BlobBaseFeeScalar": "0x101c12",
      "l1Fee": "0xbf9a32f6",
      "l1GasPrice": "0x34c6f658",
      "l1GasUsed": "0x640"
    },
    {
      "status": "0x1",
      "cumulativeGasUsed": "0x172b612",
      "logs": [],
      "logsBloom": "0x00000000000000000000000000000000000000000000000000000000000000000000000000000000000000000000000000000000000000000000000000000000000000000000000000000000000000000000000000000000000000000000000000000000000000000000000000000000000000000000000000000000000000000000000000000000000000000000000000000000000000000000000000000000000000000000000000000000000000000000000000000000000000000000000000000000000000000000000000000000000000000000000000000000000000000000000000000000000000000000000000000000000000000000000000000000",
      "type": "0x2",
      "transactionHash": "0x0f9f059a69827906401464e2d387e898401d704426c10ee6734cad7bb132060c",
      "transactionIndex": "0x86",
      "blockHash": "0x991783f6edc864752820956593de68347b284fb3954d13f0b080e58afea1ed4d",
      "blockNumber": "0x2095d13",
      "gasUsed": "0x1bff3",
      "effectiveGasPrice": "0xe60e7b",
      "from": "0x869a1e10ca4d1e1223676c0a4214c6cc10023244",
      "to": "0xf7ffa2cb2da080f6f84f495c5a670e81c106fd6e",
      "contractAddress": null,
      "l1BaseFeeScalar": "0x8dd",
      "l1BlobBaseFee": "0x1",
      "l1BlobBaseFeeScalar": "0x101c12",
      "l1Fee": "0xbf9a32f6",
      "l1GasPrice": "0x34c6f658",
      "l1GasUsed": "0x640"
    },
    {
      "status": "0x1",
      "cumulativeGasUsed": "0x1736017",
      "logs": [],
      "logsBloom": "0x00000000000000000000000000000000000000000000000000000000000000000000000000000000000000000000000000000000000000000000000000000000000000000000000000000000000000000000000000000000000000000000000000000000000000000000000000000000000000000000000000000000000000000000000000000000000000000000000000000000000000000000000000000000000000000000000000000000000000000000000000000000000000000000000000000000000000000000000000000000000000000000000000000000000000000000000000000000000000000000000000000000000000000000000000000000",
      "type": "0x2",
      "transactionHash": "0x55943357081821c762f3ce576c4ff01cb8e8eb08d82e7a26c584160e7c990264",
      "transactionIndex": "0x87",
      "blockHash": "0x991783f6edc864752820956593de68347b284fb3954d13f0b080e58afea1ed4d",
      "blockNumber": "0x2095d13",
      "gasUsed": "0xaa05",
      "effectiveGasPrice": "0xe60e7b",
      "from": "0x869a1e10ca4d1e1223676c0a4214c6cc10023244",
      "to": "0x525db9ae4faf475f19fe3815cc7eaac587842f5e",
      "contractAddress": null,
      "l1BaseFeeScalar": "0x8dd",
      "l1BlobBaseFee": "0x1",
      "l1BlobBaseFeeScalar": "0x101c12",
      "l1Fee": "0xbf9a32f6",
      "l1GasPrice": "0x34c6f658",
      "l1GasUsed": "0x640"
    },
    {
      "status": "0x1",
      "cumulativeGasUsed": "0x175200a",
      "logs": [],
      "logsBloom": "0x00000000000000000000000000000000000000000000000000000000000000000000000000000000000000000000000000000000000000000000000000000000000000000000000000000000000000000000000000000000000000000000000000000000000000000000000000000000000000000000000000000000000000000000000000000000000000000000000000000000000000000000000000000000000000000000000000000000000000000000000000000000000000000000000000000000000000000000000000000000000000000000000000000000000000000000000000000000000000000000000000000000000000000000000000000000",
      "type": "0x2",
      "transactionHash": "0x318aeb9f3583e2ffa90a36d39ea54b2a74e4e87012f4ca43027701db1cd25c53",
      "transactionIndex": "0x88",
      "blockHash": "0x991783f6edc864752820956593de68347b284fb3954d13f0b080e58afea1ed4d",
      "blockNumber": "0x2095d13",
      "gasUsed": "0x1bff3",
      "effectiveGasPrice": "0xe60e7b",
      "from": "0x869a1e10ca4d1e1223676c0a4214c6cc10023244",
      "to": "0xf7ffa2cb2da080f6f84f495c5a670e81c106fd6e",
      "contractAddress": null,
      "l1BaseFeeScalar": "0x8dd",
      "l1BlobBaseFee": "0x1",
      "l1BlobBaseFeeScalar": "0x101c12",
      "l1Fee": "0xbf9a32f6",
      "l1GasPrice": "0x34c6f658",
      "l1GasUsed": "0x640"
    },
    {
      "status": "0x1",
      "cumulativeGasUsed": "0x5e11ae",
      "logs": [],
      "logsBloom": "0x00000000000000000000000000000000000000000000000000000000000000000000000000000000000000000000000000000000000000000000000000000000000000000000000000000000000000000000000000000000000000000000000000000000000000000000000000000000000000000000000000000000000000000000000000000000000000000000000000000000000000000000000000000000000000000000000000000000000000000000000000000000000000000000000000000000000000000000000000000000000000000000000000000000000000000000000000000000000000000000000000000000000000000000000000000000",
      "type": "0x2",
      "transactionHash": "0x3fe3520561e63b98c92f4615b1297766cc04fd76d6601bac3c8bf6d6b164ef33",
      "transactionIndex": "0x22",
      "blockHash": "0xca605cd7028307e4dbbbc00cb07b855e0af6b961925eca1ac5b2f032a3a63289",
      "blockNumber": "0x2095d14",
      "gasUsed": "0xaa05",
      "effectiveGasPrice": "0xe5533f",
      "from": "0x869a1e10ca4d1e1223676c0a4214c6cc10023244",
      "to": "0x0f809a16d5b2a765969cf64ac170969edcef4e79",
      "contractAddress": null,
      "l1BaseFeeScalar": "0x8dd",
      "l1BlobBaseFee": "0x1",
      "l1BlobBaseFeeScalar": "0x101c12",
      "l1Fee": "0xbf9a32f6",
      "l1GasPrice": "0x34c6f658",
      "l1GasUsed": "0x640"
    },
    {
      "status": "0x1",
      "cumulativeGasUsed": "0x5fd1a1",
      "logs": [],
      "logsBloom": "0x00000000000000000000000000000000000000000000000000000000000000000000000000000000000000000000000000000000000000000000000000000000000000000000000000000000000000000000000000000000000000000000000000000000000000000000000000000000000000000000000000000000000000000000000000000000000000000000000000000000000000000000000000000000000000000000000000000000000000000000000000000000000000000000000000000000000000000000000000000000000000000000000000000000000000000000000000000000000000000000000000000000000000000000000000000000",
      "type": "0x2",
      "transactionHash": "0xeef276cc0cc5a9225f870efea0a83ad29c1e4d5528e7201fafc822ce29bb9232",
      "transactionIndex": "0x23",
      "blockHash": "0xca605cd7028307e4dbbbc00cb07b855e0af6b961925eca1ac5b2f032a3a63289",
      "blockNumber": "0x2095d14",
      "gasUsed": "0x1bff3",
      "effectiveGasPrice": "0xe5533f",
      "from": "0x869a1e10ca4d1e1223676c0a4214c6cc10023244",
      "to": "0xf7ffa2cb2da080f6f84f495c5a670e81c106fd6e",
      "contractAddress": null,
      "l1BaseFeeScalar": "0x8dd",
      "l1BlobBaseFee": "0x1",
      "l1BlobBaseFeeScalar": "0x101c12",
      "l1Fee": "0xbf9a32f6",
      "l1GasPrice": "0x34c6f658",
      "l1GasUsed": "0x640"
    },
    {
      "status": "0x1",
      "cumulativeGasUsed": "0x607ba6",
      "logs": [],
      "logsBloom": "0x00000000000000000000000000000000000000000000000000000000000000000000000000000000000000000000000000000000000000000000000000000000000000000000000000000000000000000000000000000000000000000000000000000000000000000000000000000000000000000000000000000000000000000000000000000000000000000000000000000000000000000000000000000000000000000000000000000000000000000000000000000000000000000000000000000000000000000000000000000000000000000000000000000000000000000000000000000000000000000000000000000000000000000000000000000000",
      "type": "0x2",
      "transactionHash": "0x80466f19098cd75bf9cbd1c65c57ce907ce568544db0e6f4e033c764cb2c090b",
      "transactionIndex": "0x24",
      "blockHash": "0xca605cd7028307e4dbbbc00cb07b855e0af6b961925eca1ac5b2f032a3a63289",
      "blockNumber": "0x2095d14",
      "gasUsed": "0xaa05",
      "effectiveGasPrice": "0xe5533f",
      "from": "0x869a1e10ca4d1e1223676c0a4214c6cc10023244",
      "to": "0xdf3a46ad39b6480571868b9a0047a7b6f88d518b",
      "contractAddress": null,
      "l1BaseFeeScalar": "0x8dd",
      "l1BlobBaseFee": "0x1",
      "l1BlobBaseFeeScalar": "0x101c12",
      "l1Fee": "0xbf9a32f6",
      "l1GasPrice": "0x34c6f658",
      "l1GasUsed": "0x640"
    },
    {
      "status": "0x1",
      "cumulativeGasUsed": "0x623b99",
      "logs": [],
      "logsBloom": "0x00000000000000000000000000000000000000000000000000000000000000000000000000000000000000000000000000000000000000000000000000000000000000000000000000000000000000000000000000000000000000000000000000000000000000000000000000000000000000000000000000000000000000000000000000000000000000000000000000000000000000000000000000000000000000000000000000000000000000000000000000000000000000000000000000000000000000000000000000000000000000000000000000000000000000000000000000000000000000000000000000000000000000000000000000000000",
      "type": "0x2",
      "transactionHash": "0x8062bad7d4b902173d75001a46690d2bfd70fc62d6e64e3e12da38712eec5730",
      "transactionIndex": "0x25",
      "blockHash": "0xca605cd7028307e4dbbbc00cb07b855e0af6b961925eca1ac5b2f032a3a63289",
      "blockNumber": "0x2095d14",
      "gasUsed": "0x1bff3",
      "effectiveGasPrice": "0xe5533f",
      "from": "0x869a1e10ca4d1e1223676c0a4214c6cc10023244",
      "to": "0xf7ffa2cb2da080f6f84f495c5a670e81c106fd6e",
      "contractAddress": null,
      "l1BaseFeeScalar": "0x8dd",
      "l1BlobBaseFee": "0x1",
      "l1BlobBaseFeeScalar": "0x101c12",
      "l1Fee": "0xbf9a32f6",
      "l1GasPrice": "0x34c6f658",
      "l1GasUsed": "0x640"
    },
    {
      "status": "0x1",
      "cumulativeGasUsed": "0x62e59e",
      "logs": [],
      "logsBloom": "0x00000000000000000000000000000000000000000000000000000000000000000000000000000000000000000000000000000000000000000000000000000000000000000000000000000000000000000000000000000000000000000000000000000000000000000000000000000000000000000000000000000000000000000000000000000000000000000000000000000000000000000000000000000000000000000000000000000000000000000000000000000000000000000000000000000000000000000000000000000000000000000000000000000000000000000000000000000000000000000000000000000000000000000000000000000000",
      "type": "0x2",
      "transactionHash": "0x69c088f12c58abab3d2d726e3e48a585a8b2debec6476838d9b3683d56f1920d",
      "transactionIndex": "0x26",
      "blockHash": "0xca605cd7028307e4dbbbc00cb07b855e0af6b961925eca1ac5b2f032a3a63289",
      "blockNumber": "0x2095d14",
      "gasUsed": "0xaa05",
      "effectiveGasPrice": "0xe5533f",
      "from": "0x869a1e10ca4d1e1223676c0a4214c6cc10023244",
      "to": "0xc1d99ecb34b44098b1bad790f9dec004ef847ae2",
      "contractAddress": null,
      "l1BaseFeeScalar": "0x8dd",
      "l1BlobBaseFee": "0x1",
      "l1BlobBaseFeeScalar": "0x101c12",
      "l1Fee": "0xbf9a32f6",
      "l1GasPrice": "0x34c6f658",
      "l1GasUsed": "0x640"
    },
    {
      "status": "0x1",
      "cumulativeGasUsed": "0x64a591",
      "logs": [],
      "logsBloom": "0x00000000000000000000000000000000000000000000000000000000000000000000000000000000000000000000000000000000000000000000000000000000000000000000000000000000000000000000000000000000000000000000000000000000000000000000000000000000000000000000000000000000000000000000000000000000000000000000000000000000000000000000000000000000000000000000000000000000000000000000000000000000000000000000000000000000000000000000000000000000000000000000000000000000000000000000000000000000000000000000000000000000000000000000000000000000",
      "type": "0x2",
      "transactionHash": "0x878c396dc38bbc031f6cb0152229b5b2b0e81e3b8cf4ecec78ff59743f35fbf3",
      "transactionIndex": "0x27",
      "blockHash": "0xca605cd7028307e4dbbbc00cb07b855e0af6b961925eca1ac5b2f032a3a63289",
      "blockNumber": "0x2095d14",
      "gasUsed": "0x1bff3",
      "effectiveGasPrice": "0xe5533f",
      "from": "0x869a1e10ca4d1e1223676c0a4214c6cc10023244",
      "to": "0xf7ffa2cb2da080f6f84f495c5a670e81c106fd6e",
      "contractAddress": null,
      "l1BaseFeeScalar": "0x8dd",
      "l1BlobBaseFee": "0x1",
      "l1BlobBaseFeeScalar": "0x101c12",
      "l1Fee": "0xbf9a32f6",
      "l1GasPrice": "0x34c6f658",
      "l1GasUsed": "0x640"
    },
    {
      "status": "0x1",
      "cumulativeGasUsed": "0x654f8a",
      "logs": [],
      "logsBloom": "0x00000000000000000000000000000000000000000000000000000000000000000000000000000000000000000000000000000000000000000000000000000000000000000000000000000000000000000000000000000000000000000000000000000000000000000000000000000000000000000000000000000000000000000000000000000000000000000000000000000000000000000000000000000000000000000000000000000000000000000000000000000000000000000000000000000000000000000000000000000000000000000000000000000000000000000000000000000000000000000000000000000000000000000000000000000000",
      "type": "0x2",
      "transactionHash": "0xdf346fc172f0d1a1ba6cfce9e85eeb74f92e9aa78e6c7fa9e3c87d26d1049a50",
      "transactionIndex": "0x28",
      "blockHash": "0xca605cd7028307e4dbbbc00cb07b855e0af6b961925eca1ac5b2f032a3a63289",
      "blockNumber": "0x2095d14",
      "gasUsed": "0xa9f9",
      "effectiveGasPrice": "0xe5533f",
      "from": "0x869a1e10ca4d1e1223676c0a4214c6cc10023244",
      "to": "0x7f4b97badb5cd6d927d5fb6187967d659e3be216",
      "contractAddress": null,
      "l1BaseFeeScalar": "0x8dd",
      "l1BlobBaseFee": "0x1",
      "l1BlobBaseFeeScalar": "0x101c12",
      "l1Fee": "0xbf9a32f6",
      "l1GasPrice": "0x34c6f658",
      "l1GasUsed": "0x640"
    },
    {
      "status": "0x1",
      "cumulativeGasUsed": "0x6d3748",
      "logs": [],
      "logsBloom": "0x00000000000000000000000000000000000000000000000000000000000000000000000000000000000000000000000000000000000000000000000000000000000000000000000000000000000000000000000000000000000000000000000000000000000000000000000000000000000000000000000000000000000000000000000000000000000000000000000000000000000000000000000000000000000000000000000000000000000000000000000000000000000000000000000000000000000000000000000000000000000000000000000000000000000000000000000000000000000000000000000000000000000000000000000000000000",
      "type": "0x2",
      "transactionHash": "0xe371247696bf2dd3e25c8ef4b4b92cf26d5e1abdb43feeab2210daf11d07aad4",
      "transactionIndex": "0x2b",
      "blockHash": "0xca605cd7028307e4dbbbc00cb07b855e0af6b961925eca1ac5b2f032a3a63289",
      "blockNumber": "0x2095d14",
      "gasUsed": "0x1bff3",
      "effectiveGasPrice": "0xe5533f",
      "from": "0x869a1e10ca4d1e1223676c0a4214c6cc10023244",
      "to": "0xf7ffa2cb2da080f6f84f495c5a670e81c106fd6e",
      "contractAddress": null,
      "l1BaseFeeScalar": "0x8dd",
      "l1BlobBaseFee": "0x1",
      "l1BlobBaseFeeScalar": "0x101c12",
      "l1Fee": "0xbf9a32f6",
      "l1GasPrice": "0x34c6f658",
      "l1GasUsed": "0x640"
    },
    {
      "status": "0x1",
      "cumulativeGasUsed": "0x6de141",
      "logs": [],
      "logsBloom": "0x00000000000000000000000000000000000000000000000000000000000000000000000000000000000000000000000000000000000000000000000000000000000000000000000000000000000000000000000000000000000000000000000000000000000000000000000000000000000000000000000000000000000000000000000000000000000000000000000000000000000000000000000000000000000000000000000000000000000000000000000000000000000000000000000000000000000000000000000000000000000000000000000000000000000000000000000000000000000000000000000000000000000000000000000000000000",
      "type": "0x2",
      "transactionHash": "0xc367f08b08c78d3975cf3027536ae85c8a606e4f99195479ab54b9fd6d50c4a7",
      "transactionIndex": "0x2c",
      "blockHash": "0xca605cd7028307e4dbbbc00cb07b855e0af6b961925eca1ac5b2f032a3a63289",
      "blockNumber": "0x2095d14",
      "gasUsed": "0xa9f9",
      "effectiveGasPrice": "0xe5533f",
      "from": "0x869a1e10ca4d1e1223676c0a4214c6cc10023244",
      "to": "0xe17b4786083635c564825f81f6836f743ba2e9a7",
      "contractAddress": null,
      "l1BaseFeeScalar": "0x8dd",
      "l1BlobBaseFee": "0x1",
      "l1BlobBaseFeeScalar": "0x101c12",
      "l1Fee": "0xbf9a32f6",
      "l1GasPrice": "0x34c6f658",
      "l1GasUsed": "0x640"
    },
    {
      "status": "0x1",
      "cumulativeGasUsed": "0x1d4f4d4",
      "logs": [],
      "logsBloom": "0x00000000000000000000000000000000000000000000000000000000000000000000000000000000000000000000000000000000000000000000000000000000000000000000000000000000000000000000000000000000000000000000000000000000000000000000000000000000000000000000000000000000000000000000000000000000000000000000000000000000000000000000000000000000000000000000000000000000000000000000000000000000000000000000000000000000000000000000000000000000000000000000000000000000000000000000000000000000000000000000000000000000000000000000000000000000",
      "type": "0x2",
      "transactionHash": "0x0c51747dda98bd6123366dab5f5c1ccfa3552a9f07e3a86ab247db62531628bf",
      "transactionIndex": "0x66",
      "blockHash": "0xfc9a778427d9ae4470c20dbec3f2dad9c6306a06da72c0a458743e43279f4e12",
      "blockNumber": "0x2095d14",
      "gasUsed": "0x577868",
      "effectiveGasPrice": "0xe5533f",
      "from": "0x869a1e10ca4d1e1223676c0a4214c6cc10023244",
      "to": "0xf7ffa2cb2da080f6f84f495c5a670e81c106fd6e",
      "contractAddress": null,
      "l1BaseFeeScalar": "0x8dd",
      "l1BlobBaseFee": "0x1",
      "l1BlobBaseFeeScalar": "0x101c12",
      "l1Fee": "0xbf9a32f6",
      "l1GasPrice": "0x34c6f658",
      "l1GasUsed": "0x640"
    },
    {
      "status": "0x1",
      "cumulativeGasUsed": "0x1d59ed9",
      "logs": [],
      "logsBloom": "0x00000000000000000000000000000000000000000000000000000000000000000000000000000000000000000000000000000000000000000000000000000000000000000000000000000000000000000000000000000000000000000000000000000000000000000000000000000000000000000000000000000000000000000000000000000000000000000000000000000000000000000000000000000000000000000000000000000000000000000000000000000000000000000000000000000000000000000000000000000000000000000000000000000000000000000000000000000000000000000000000000000000000000000000000000000000",
      "type": "0x2",
      "transactionHash": "0x8afc9345007e59ec1f59f821a931ebd28643ef4e55f1c9102db9919ad989b317",
      "transactionIndex": "0x67",
      "blockHash": "0x3c09d3612d02c8bf73125ca763cbd4f3578e4f02b9faf32268a34057bfc842c3",
      "blockNumber": "0x2095d14",
      "gasUsed": "0xaa05",
      "effectiveGasPrice": "0xe5533f",
      "from": "0x869a1e10ca4d1e1223676c0a4214c6cc10023244",
      "to": "0x507cf698ebf379a178222103ff7ba7670065fe9a",
      "contractAddress": null,
      "l1BaseFeeScalar": "0x8dd",
      "l1BlobBaseFee": "0x1",
      "l1BlobBaseFeeScalar": "0x101c12",
      "l1Fee": "0xbf9a32f6",
      "l1GasPrice": "0x34c6f658",
      "l1GasUsed": "0x640"
    },
    {
      "status": "0x1",
      "cumulativeGasUsed": "0x1d75ecc",
      "logs": [],
      "logsBloom": "0x00000000000000000000000000000000000000000000000000000000000000000000000000000000000000000000000000000000000000000000000000000000000000000000000000000000000000000000000000000000000000000000000000000000000000000000000000000000000000000000000000000000000000000000000000000000000000000000000000000000000000000000000000000000000000000000000000000000000000000000000000000000000000000000000000000000000000000000000000000000000000000000000000000000000000000000000000000000000000000000000000000000000000000000000000000000",
      "type": "0x2",
      "transactionHash": "0x452b7d72282fb062f12015a74a55cfb8d6c90f1a1c1928d5bc52dcf0ef997764",
      "transactionIndex": "0x68",
      "blockHash": "0x3c09d3612d02c8bf73125ca763cbd4f3578e4f02b9faf32268a34057bfc842c3",
      "blockNumber": "0x2095d14",
      "gasUsed": "0x1bff3",
      "effectiveGasPrice": "0xe5533f",
      "from": "0x869a1e10ca4d1e1223676c0a4214c6cc10023244",
      "to": "0xf7ffa2cb2da080f6f84f495c5a670e81c106fd6e",
      "contractAddress": null,
      "l1BaseFeeScalar": "0x8dd",
      "l1BlobBaseFee": "0x1",
      "l1BlobBaseFeeScalar": "0x101c12",
      "l1Fee": "0xbf9a32f6",
      "l1GasPrice": "0x34c6f658",
      "l1GasUsed": "0x640"
    },
    {
      "status": "0x1",
      "cumulativeGasUsed": "0x1de5176",
      "logs": [],
      "logsBloom": "0x00000000000000000000000000000000000000000000000000000000000000000000000000000000000000000000000000000000000000000000000000000000000000000000000000000000000000000000000000000000000000000000000000000000000000000000000000000000000000000000000000000000000000000000000000000000000000000000000000000000000000000000000000000000000000000000000000000000000000000000000000000000000000000000000000000000000000000000000000000000000000000000000000000000000000000000000000000000000000000000000000000000000000000000000000000000",
      "type": "0x2",
      "transactionHash": "0x570131170d48ca41f98346237dd1d95e209a49e402d2fcfd5ef6b9bea6550ce1",
      "transactionIndex": "0x6a",
      "blockHash": "0xfc9a778427d9ae4470c20dbec3f2dad9c6306a06da72c0a458743e43279f4e12",
      "blockNumber": "0x2095d14",
      "gasUsed": "0x60d50a",
      "effectiveGasPrice": "0xe5533f",
      "from": "0x869a1e10ca4d1e1223676c0a4214c6cc10023244",
      "to": "0xcf3be8983ba4012e007289c72888be9b41ea98c9",
      "contractAddress": null,
      "l1BaseFeeScalar": "0x8dd",
      "l1BlobBaseFee": "0x1",
      "l1BlobBaseFeeScalar": "0x101c12",
      "l1Fee": "0xbf9a32f6",
      "l1GasPrice": "0x34c6f658",
      "l1GasUsed": "0x640"
    },
    {
      "status": "0x1",
      "cumulativeGasUsed": "0x1e01169",
      "logs": [],
      "logsBloom": "0x00000000000000000000000000000000000000000000000000000000000000000000000000000000000000000000000000000000000000000000000000000000000000000000000000000000000000000000000000000000000000000000000000000000000000000000000000000000000000000000000000000000000000000000000000000000000000000000000000000000000000000000000000000000000000000000000000000000000000000000000000000000000000000000000000000000000000000000000000000000000000000000000000000000000000000000000000000000000000000000000000000000000000000000000000000000",
      "type": "0x2",
      "transactionHash": "0x9bb1a516b2887176dedffa9f63059e7b39d805f776610ba6d2d24f418cf10363",
      "transactionIndex": "0x6b",
      "blockHash": "0x3c09d3612d02c8bf73125ca763cbd4f3578e4f02b9faf32268a34057bfc842c3",
      "blockNumber": "0x2095d14",
      "gasUsed": "0x1bff3",
      "effectiveGasPrice": "0xe5533f",
      "from": "0x869a1e10ca4d1e1223676c0a4214c6cc10023244",
      "to": "0xf7ffa2cb2da080f6f84f495c5a670e81c106fd6e",
      "contractAddress": null,
      "l1BaseFeeScalar": "0x8dd",
      "l1BlobBaseFee": "0x1",
      "l1BlobBaseFeeScalar": "0x101c12",
      "l1Fee": "0xbf9a32f6",
      "l1GasPrice": "0x34c6f658",
      "l1GasUsed": "0x640"
    },
    {
      "status": "0x1",
      "cumulativeGasUsed": "0x1e0bb6e",
      "logs": [],
      "logsBloom": "0x00000000000000000000000000000000000000000000000000000000000000000000000000000000000000000000000000000000000000000000000000000000000000000000000000000000000000000000000000000000000000000000000000000000000000000000000000000000000000000000000000000000000000000000000000000000000000000000000000000000000000000000000000000000000000000000000000000000000000000000000000000000000000000000000000000000000000000000000000000000000000000000000000000000000000000000000000000000000000000000000000000000000000000000000000000000",
      "type": "0x2",
      "transactionHash": "0x23533e81ca55394bea2e4e8cae70bf552ee688eef748ad72dd63cc91ec8237a6",
      "transactionIndex": "0x6c",
      "blockHash": "0x3c09d3612d02c8bf73125ca763cbd4f3578e4f02b9faf32268a34057bfc842c3",
      "blockNumber": "0x2095d14",
      "gasUsed": "0xaa05",
      "effectiveGasPrice": "0xe5533f",
      "from": "0x869a1e10ca4d1e1223676c0a4214c6cc10023244",
      "to": "0x8b738bfa1909e183e7f80e412028c68c2ed14d82",
      "contractAddress": null,
      "l1BaseFeeScalar": "0x8dd",
      "l1BlobBaseFee": "0x1",
      "l1BlobBaseFeeScalar": "0x101c12",
      "l1Fee": "0xbf9a32f6",
      "l1GasPrice": "0x34c6f658",
      "l1GasUsed": "0x640"
    }
  ],
  "libraries": [],
  "pending": [],
  "returns": {},
  "timestamp": 1755125517,
  "chain": 8453,
  "commit": null
}